:020000040000FA
:060000000A128A110C280F
:10000800FE00030EF1000A08F2000A128A111328F2
:100018000A128A110F2883010A128A114A280B1C16
:10002800162817282D2883120313061C1C281D28A0
:1000380023280130F000700888070B1024280B10C3
:10004800861C272828282C28013088020B102D28E8
:100058000B1072088A00710E8300FE0E7E0E0900D6
:10006800831203138501860187018801831603170C
:1000780088018901831603138501033086008701EF
:10008800880188308B000330960008000A128A1114
:0E00980034200A128A114F280A128A110C28ED
:04400E00D120FF3F7F
:00000001FF
