:020000040000FA
:060000000A128A11F82F1C
:100F34008312031385018601870188018316031731
:100F44008801890107308316031385008601870110
:100F54008801F001F10108000A128A119A270A1285
:100F64008A1183120313051CB82FB92FB32F0A1249
:100F74008A11C2270A128A11B32F0A128A11002871
:100F84008312031308140B30F6002630F5005D308D
:100F9400F400F40BCB2FF50BCB2FF60BCB2FD22F6A
:100FA40083120313081088140630F6001330F5007A
:100FB400AD30F400F40BDC2FF50BDC2FF60BDC2F3B
:100FC400E32F83120313881008150630F60013303C
:100FD400F500AD30F400F40BED2FF50BED2FF60B0F
:100FE400ED2FF42F8312031308110800F001F1010F
:0C0FF400F201F30183010A128A11AE2FF2
:04400E00D120FF3F7F
:00000001FF
