:020000040000FA
:060000000A128A110C280F
:10000800FE00030EF2000A08F3000A128A114B28B8
:100018000A128A110F28F801F90183010A128A11BC
:100028007228831203138501870188018316031739
:1000380088011030890020308316031385000130B1
:100048008600183087008801831203131F08C339FC
:1000580030389F001F14831603139F01C0308B0094
:1000680060308C00FF30920004308312031392003A
:100078008C11831603138C158516F401F501F6010E
:1000880024300A128A1190200A128A110800831259
:1000980003130C1F5028512856281E08F100710818
:1000A800F9000C138C1D59285A286B280A128A113A
:1000B800A6200A128A11F1007108F80079080A12BC
:1000C8008A11B6200A128A11831203138C1173083D
:1000D8008A00720E8300FE0E7E0E09000A128A1133
:1000E80015200A128A11831203139F187C287D2871
:1000F8008A280D3083120313A100FB30A000A00B47
:100108008328A10B8328831203139F14790888007E
:1001180077280A128A110C28F7008316031387120E
:10012800771D972898289C28760894008715A0287A
:1001380074087604940087117708750483120313F2
:10014800940008000A128A11AF200A128A11831239
:1001580003131308080083160313141CB428B528C6
:10016800AF280800F00070088312031393000800FA
:04400E00D120FF3F7F
:00000001FF
