:020000040000FA
:100000000A128A11ED2F00308A000408840A820740
:10001000003468346F347234613420343A3400343C
:1000200073346534673420343A3400346D346934C1
:080030006E3420343A34003430
:100732000A128A11BF230A128A1183160313111493
:1007420008000A128A11BF230A128A1183160313A0
:10075200111508000A128A11BF230A128A117008A1
:100762008312031393000800F000831203130C1E7C
:10077200BB2BBC2BB62B7008990008008316031301
:100782001419C42BC52BBF2B11081F39031DCA2BEB
:10079200CB2BBF2B0800F300F201731CD12BD22B01
:1007A200D62B7008F1007108F2070310F00D031048
:1007B200F30C7308031DDE2BDF2BCE2B720808000F
:1007C200F200F32B720884000A128A1103200A1223
:1007D2008A110A128A11B5230A128A110130F10014
:1007E2007108F207720884000A128A1103200A12A1
:1007F2008A11003A031DFE2BFF2BE32B0800F200A7
:100802007208F000700883120313A2002208F0009D
:100812000310700CF1007108A2007830F00070082B
:10082200A2052208F00002300310F00CFF3E031D67
:10083200152C72080F397007F100220871070800A1
:10084200831603178801890110308316031387006A
:100852008601003083120313B0000130AF008630EE
:10086200AE00A030AD000A128A117A240A128A114F
:10087200C0308B00831603139A013330990083161C
:1008820003178701243083160313980090308312D4
:100892000313980008000A128A11BF230A128A1150
:1008A2008316031391150A128A11BF230A128A11A1
:1008B200831203131308F200F3017208F4007308A1
:1008C200F5000A128A11BF230A128A1170037104F9
:1008D200031D6C2C6D2C712C831603139112742C36
:1008E20083160313911611167508F1007408F000AF
:1008F2000800283083120313940083160313910116
:10090200831203132D08B1002E08B2002F08B30082
:100912003008B40002300310B10DB20DB30DB40DA6
:10092200FF3E031D8C2C3408F3003308F20032081A
:10093200F1003108F0000030F7007A30F600123092
:10094200F5000030F4000A128A11B2240A128A1148
:100952007008FF3E83160313930094018715071650
:1009620008000030FC000030FB000030FA000030CC
:10097200F90073087204710470040319C12CC22CAB
:100982000F2DFD01FD0AD22C0130F8000310F00DED
:10099200F10DF20DF30DF80BC72C0130F8007808B9
:1009A200FD07F31FD52CD62CC52C0130F8000310FF
:1009B200F90DFA0DFB0DFC0DF80BD82C730877021C
:1009C200031DED2C72087602031DED2C71087502D1
:1009D200031DED2C70087402031CF02CF12C002D69
:1009E2007008F4027108031C710FF5027208031CEF
:1009F200720FF6027308031C730FF70279140130A9
:100A02000310F30CF20CF10CF00CFF3E031D012D50
:100A12000130FD02031D0E2D0F2DD62C7C08F30094
:100A22007B08F2007A08F1007908F0000800F6016C
:100A3200F11F1C2D1D2D242DF009F109F00A0319B7
:100A4200F10AF601F60AF31F272D282D312DF2099E
:100A5200F309F20A0319F30A0130F4007408F606E6
:100A6200F701F801700871040319382D392D702D22
:100A7200F501F50A472D01300310F00DF10DFF3E8F
:100A8200031D3D2D0130F4007408F507F11F4A2DB6
:100A92004B2D3C2D01300310F70DF80DFF3E031DC9
:100AA2004C2D71087302031D582D70087202031C2D
:100AB2005B2D5C2D632D7008F2027108031CF30399
:100AC200F302771401300310F10CF00CFF3E031D0A
:100AD200642D0130F502031D6F2D702D4B2D76080C
:100AE2000319742D752D7A2DF709F809F70A0319E0
:100AF200F80A7808F1007708F0000800F200CE2D1D
:100B02003030F000700883120313A000F62D31304C
:100B1200F000700883120313A000F62D3230F000AB
:100B2200700883120313A000F62D3330F000700812
:100B320083120313A000F62D3430F00070088312E4
:100B42000313A000F62D3530F00070088312031352
:100B5200A000F62D3630F000700883120313A000B7
:100B6200F62D3730F000700883120313A000F62D23
:100B72003830F000700883120313A000F62D3930CC
:100B8200F000700883120313A000F62D4030F0002D
:100B9200700883120313A000F62D7208F000F10111
:100BA2007108003A0319D62DC72D7008003A0319AF
:100BB200812D013A0319882D033A03198F2D013A29
:100BC2000319962D073A03199D2D013A0319A42DF5
:100BD200033A0319AB2D013A0319B22D0F3A031947
:100BE200B92D013A0319C02DC72D08000A128A1126
:100BF20099230A128A11D030F0000030F1000A1253
:100C02008A11AB230A128A110030F000F1000A1295
:100C12008A11AB230A128A110A128A11A2230A121A
:100C22008A110B30F7006230F600F60B162EF70B26
:100C3200162E00000A128A1199230A128A11D13043
:100C4200F0000030F1000A128A11AB230A128A1155
:100C52000130F0000030F1000A128A114C240A120D
:100C62008A1170087F390A128A1100240A128A1125
:100C7200F600760883120313AC000130F000003056
:100C8200F1000A128A114C240A128A1170087F3963
:100C92000A128A1100240A128A11F60076088312B7
:100CA2000313AB000030F000F1000A128A114C2449
:100CB2000A128A1170083F390A128A1100240A1294
:100CC2008A11F600760883120313AA000A128A1107
:100CD200A2230A128A110B30F7006230F600F60BDB
:100CE200702EF70B702E000008000A128A112124C0
:100CF2000A128A110A128A11F7250A128A110A3077
:100D0200F0000030F100831203132A08B500B60187
:100D12003508F2003608F3000A128A1118250A1261
:100D22008A11700883120313B7003708A300F63044
:100D3200B5003508F00023080A128A11CC230A12E2
:100D42008A11831203132A07B6003608A4000A3058
:100D5200F0000030F1002B08B500B6013508F200B2
:100D62003608F3000A128A1118250A128A1170082D
:100D720083120313B7003708A500F630B500350813
:100D8200F00025080A128A11CC230A128A11831252
:100D920003132B07B6003608A6000A30F000003015
:100DA200F1002C08B500B6013508F2003608F30050
:100DB2000A128A1118250A128A1170088312031363
:100DC200B7003708A700F630B5003508F00027084D
:100DD2000A128A11CC230A128A11831203132C07D6
:100DE200B6003608A80083160313981CF92EFA2EB3
:100DF2007B2E01300A128A11E1230A128A110B306A
:100E020083120313B6006130B500B50B062FB60B83
:100E1200062F0B2F203083120313990023080A1286
:100E22008A117F250A128A1183120313B50035082D
:100E3200A100210899000B3083120313B600613020
:100E4200B500B50B222FB60B222F272F83120313C7
:100E520024080A128A117F250A128A1183120313A7
:100E6200B5003508A100210899000B308312031345
:100E7200B6006130B500B50B3C2FB60B3C2F412FAD
:100E820020308312031399000E300A128A11E123D3
:100E92000A128A110B3083120313B6006130B500B7
:100EA200B50B512FB60B512F562F2030831203133F
:100EB200990025080A128A117F250A128A118312C3
:100EC2000313B5003508A100210899000B308312E5
:100ED2000313B6006130B500B50B6D2FB60B6D2F45
:100EE200722F8312031326080A128A117F250A120F
:100EF2008A1183120313B5003508A1002108990055
:100F02000B3083120313B6006130B500B50B872F87
:100F1200B60B872F8C2F20308312031399000830D1
:100F22000A128A11E1230A128A110B308312031367
:100F3200B6006130B500B50B9C2FB60B9C2FA12FCC
:100F4200203083120313990027080A128A117F2581
:100F52000A128A1183120313B5003508A100210871
:100F620099000B3083120313B6006130B500B50B44
:100F7200B82FB60BB82FBD2F8312031328080A12FD
:100F82008A117F250A128A1183120313B5003508CC
:100F9200A100210899000B3083120313B6006130BF
:100FA200B500B50BD22FB60BD22FD72F0D3083122F
:100FB20003139900043083120313B7000C30B600F8
:100FC2003330B500B50BE32FB60BE32FB70BE32F8E
:100FD2007B2E0A128A11002883120313A001A10199
:100FE200A201A301A401A501A601A701A801A901CB
:0E0FF200AA01AB01AC0183010A128A11762E0E
:04400E00D420FF3F7C
:00000001FF
