:020000040000FA
:060000000A128A110C280F
:10000800FE00030EF1000A08F2000A128A113F2CC2
:100018000A128A110F28F801F901FA018312031351
:10002800B401B501B601B701B801B901BA01BB0104
:10003800BC01BD01BE01BF0183010A128A11242837
:10004800063083120313B3001330B200AD30B10091
:10005800B10B2C28B20B2C28B30B2C280A128A11AE
:1000680056230A128A110A128A118B230A128A113C
:1000780083120313350885000A128A1150210A12C7
:100088008A110A30F3000030F400831203133D088C
:10009800B100B2013108F5003208F6000A128A11DF
:1000A8004B220A128A11730883120313B300330810
:1000B800B700F630B1003108F30037080A128A1188
:1000C8002A240A128A11831203133D07B200320848
:1000D800B8000A30F3000030F4003E08B100B20165
:1000E8003108F5003208F6000A128A114B220A126A
:1000F8008A11730883120313B3003308B900F6306A
:10010800B1003108F30039080A128A112A240A12A8
:100118008A11831203133E07B2003208BA000A306C
:10012800F3000030F4003F08B100B2013108F500D7
:100138003208F6000A128A114B220A128A11730831
:1001480083120313B3003308BB00F630B100310843
:10015800F3003B080A128A112A240A128A11831210
:1001680003133F07B2003208BC0083160313981C20
:10017800BE28BF283C288312031337080A128A11A5
:10018800D3210A128A1183120313B1003108B60071
:1001980036080A128A1168240A128A118312031374
:1001A80038080A128A11D3210A128A1183120313FA
:1001B800B1003108B60036080A128A1168240A12FA
:1001C8008A1101300A128A11EC230A128A11831249
:1001D800031339080A128A11D3210A128A118312C9
:1001E8000313B1003108B60036080A128A116824D0
:1001F8000A128A11831203133A080A128A11D321A8
:100208000A128A1183120313B1003108B6003608A6
:100218000A128A1168240A128A1101300A128A11F4
:10022800EC230A128A11831203133B080A128A115B
:10023800D3210A128A1183120313B1003108B600C0
:1002480036080A128A1168240A128A1183120313C3
:100258003C080A128A11D3210A128A118312031345
:10026800B1003108B60036080A128A1168240A1249
:100278008A11023083120313B3008630B20098301B
:10028800B100B10B4529B20B4529B30B4529000034
:100298003C280A128A110C280A128A1185240A128B
:1002A8008A11D030F3000030F4000A128A11722447
:1002B8000A128A110030F300F4000A128A1172241B
:1002C8000A128A110A128A117C240A128A1106302B
:1002D80083120313A3002F30A200A20B7129A30BD2
:1002E800712976290A128A1185240A128A11D130B5
:1002F800F3000030F4000A128A1172240A128A11DB
:100308000130F3000030F4000A128A11BC230A12EB
:100318008A1173087F390A128A110B240A128A116A
:1003280083120313A2002208BF000130F30000303B
:10033800F4000A128A11BC230A128A1173087F3941
:100348000A128A110B240A128A1183120313A200BB
:100358002208BE000030F300F4000A128A11BC2300
:100368000A128A1173083F390A128A110B240A12D9
:100378008A1183120313A2002208BD000A128A11EF
:100388007C240A128A11073083120313A3007C30DD
:10039800A200A20BCD29A30BCD2900000800F5006F
:1003A800222A3030F300730883120313B4004A2A58
:1003B8003130F300730883120313B4004A2A323031
:1003C800F300730883120313B4004A2A3330F3008E
:1003D800730883120313B4004A2A3430F3007308F5
:1003E80083120313B4004A2A3530F30073088312CA
:1003F8000313B4004A2A3630F30073088312031338
:10040800B4004A2A3730F300730883120313B40088
:100418004A2A3830F300730883120313B4004A2AB7
:100428003930F300730883120313B4004A2A4030AA
:10043800F300730883120313B4004A2A7508F30003
:10044800F4017408003A03192A2A1B2A7308003A8F
:100458000319D529013A0319DC29033A0319E329B9
:10046800013A0319EA29073A0319F129013A03194C
:10047800F829033A0319FF29013A0319062A0F3A02
:1004880003190D2A013A0319142A1B2A080083129A
:100498000313A101F41F512A522A592AF309F40916
:1004A800F30A0319F40AA101A10AF61F5C2A5D2ABE
:1004B800662AF509F609F50A0319F60A0130F70064
:1004C8007708A106A201A3017308740403196D2A11
:1004D8006E2AA52AA001A00A7C2A01300310F30D78
:1004E800F40DFF3E031D722A0130F7007708A007BC
:1004F800F41F7F2A802A712A01300310A20DA30D50
:10050800FF3E031D812A74087602031D8D2A730895
:100518007502031C902A912A982A7308F502740818
:10052800031CF603F602221401300310F40CF30C3A
:10053800FF3E031D992A0130A002031DA42AA52A03
:10054800802A21080319A92AAA2AAF2AA209A309DD
:10055800A20A0319A30A2308F4002208F3000800DA
:10056800003083120313AB000030AA000030A9004A
:100578000030A80023082204210420040319C52AF6
:10058800C62A132BAC01AC0AD62A0130F30003109B
:10059800A00DA10DA20DA30DF30BCB2A0130F30082
:1005A8007308AC07A31FD92ADA2AC92A0130F30035
:1005B8000310A80DA90DAA0DAB0DF30BDC2A230817
:1005C8002702031DF12A22082602031DF12A210809
:1005D8002502031DF12A20082402031CF42AF52A07
:1005E800042B2008A4022108031C210FA5022208BD
:1005F800031C220FA6022308031C230FA70228149A
:1006080001300310A30CA20CA10CA00CFF3E031D8B
:10061800052B0130AC02031D122B132BDA2A2B08F1
:10062800A3002A08A2002908A1002808A0000800A1
:100638002830831203139400831603139101831245
:1006480003132D08F4002E08F5002F08F6003008D3
:10065800F70002300310F40DF50DF60DF70DFF3E0F
:10066800031D2E2B7708A3007608A2007508A100A9
:100678007408A0000030A7007A30A6001230A50048
:100688000030A4000A128A11B4220A128A118312B5
:1006980003132008FF3E8316031393009401871564
:1006A8000716080083160317880189011830831676
:1006B80003138700860183120313890185018316BA
:1006C800031385018901003083120313B000013040
:1006D800AF008630AE00A030AD000A128A111C238C
:1006E8000A128A11C0308B00831603138C169A01E4
:1006F80018151930990083160317870124308316BB
:1007080003139800903083120313980008000A120C
:100718008A1185240A128A11D030F3000030F400BF
:100728000A128A1172240A128A110030F300F400A6
:100738000A128A1172240A128A110030F300F40096
:100748000A128A1172240A128A112230F300003028
:10075800F4000A128A1172240A128A114130F30035
:100768000030F4000A128A1172240A128A11080051
:100778000A128A1151240A128A1183160313911539
:100788000A128A1151240A128A11831203131308B8
:10079800F500F6017508A0007608A1000A128A1172
:1007A80051240A128A1173037404031DDC2BDD2BF8
:1007B800E12B831603139112E42B8316031391166E
:1007C8001116831203132108F4002008F30008000F
:1007D800F500FE2B750884000A128A115E240A129D
:1007E8008A110A128A1168240A128A110130F40047
:1007F8007408F507750884000A128A115E240A1223
:100808008A11003A031D092C0A2CEE2B0800F5006A
:100818007508F3007308F9007908F3000310730CE6
:10082800F4007408F9007830F3007308F9057908C2
:10083800F30002300310F30CFF3E031D1E2C750855
:100848000F397307F400790874070800F600F501FA
:10085800761C2F2C302C342C7308F4007408F50700
:100868000310F30D0310F60C7608031D3C2C3D2CE9
:100878002C2C75080800831203138C1E442C452C5D
:100888004A2C1A08F0007008B5008C1272088A0009
:10089800710E8300FE0E7E0E0900831603131419D1
:1008A800562C572C512C11081F39031D5C2C5D2C1C
:1008B800512C080004308A000408840A8207003496
:1008C80020343A3420340034F300831203130C1E0E
:1008D8006E2C6F2C692C7308990008000A128A1173
:1008E80051240A128A117308831203139300080013
:1008F8000A128A1151240A128A1183160313111538
:1009080008000A128A1151240A128A118316031345
:0409180011140800AE
:04400E00D420FF3F7C
:00000001FF
