:020000040000FA
:060000000A128A110C280F
:10000800FE00030EF2000A08F3000A128A115128B2
:100018000A128A110F28F60183010A128A11372859
:10002800831203138501870188018316031788014A
:100038000130890083160313850104308600870187
:1000480088012130831203139F00831603139F0135
:10005800C0308B0060308C00FF3092000430831277
:100068000313920008000A128A1114200A128A1136
:10007800831203139F18412842284E280D30F5009B
:10008800FB30F400F40B4628F50B46284B28831266
:1000980003139F140A128A110C280A128A1160206D
:1000A8000A128A11F1007108F60073088A00720EAC
:1000B8008300FE0E7E0E0900831203130C1F6528B1
:1000C80066286B281E08F0007008F6000C1308005C
:04400E00D120FF3F7F
:00000001FF
