:020000040000FA
:060000000A128A110C280F
:10000800FE00030EF2000A08F3000A128A116C2897
:100018000A128A110F28F60183010A128A1114287C
:100028000A128A114D200A128A11831203139F188B
:100038001E281F282B280D30F500FB30F400F40B88
:100048002328F50B23282828831203139F147608E6
:1000580087000D3076020318322833283628081412
:10006800881008110D307602031C3B283C281928FB
:100078001D307602031841284228462808108814A3
:100088000811192808108810081519280A128A1149
:100098000C2883120313850187018801831603172F
:1000A8008801013089000830831603138500043065
:1000B8008600870188012130831203139F001030C6
:1000C800831603139F00C0308B0040308C0008005B
:1000D8000A128A117B200A128A11F1007108F600AF
:1000E80073088A00720E8300FE0E7E0E09008312CA
:1000F80003130C1F8028812886281E08F00070082A
:06010800F6000C130800D4
:04400E00D120FF3F7F
:00000001FF
