:020000040000FA
:060000000A128A11F82F1C
:100E6E0083120313850186018701880183160317F8
:100E7E0088018901073083160313850086018701D7
:100E8E008801F601F70108008312031308140B30D2
:100E9E00F2002630F1005D30F000F00B542FF10B14
:100EAE00542FF20B542F5B2F831203130810881448
:100EBE000630F2001330F100AD30F000F00B652F6C
:100ECE00F10B652FF20B652F6C2F83120313881015
:100EDE0008150630F2001330F100AD30F000F00BC3
:100EEE00762FF10B762FF20B762F7D2F83120313B5
:100EFE00081108000A128A1137270A128A11831262
:100F0E000313051C8B2F8C2F862F0A128A114B2749
:100F1E000A128A11EE2F851C952F962FBC2F0608CC
:100F2E00031D9A2F9B2FAB2F013086000430F50046
:100F3E000C30F4003330F300F30BA32FF40BA32F7C
:100F4E00F50BA32FAA2FBC2F0608F30073078600FC
:100F5E000430F5000C30F4003330F300F30BB52FF2
:100F6E00F40BB52FF50BB52FBC2F83120313051DF4
:100F7E00C12FC22FE82F0708031DC62FC72FD72F4B
:100F8E00013087000430F5000C30F4003330F300EC
:100F9E00F30BCF2FF40BCF2FF50BCF2FD62FE82F30
:100FAE000708F300730787000430F5000C30F400D7
:100FBE003330F300F30BE12FF40BE12FF50BE12FA0
:100FCE00E82F83120313081EED2FEE2F922F83129C
:100FDE000313881DF32FF42FE82F862F0A128A1180
:100FEE000028F601F701F801F90183010A128A11AE
:020FFE00812F41
:04400E00D120FF3F7F
:00000001FF
