:020000040000FA
:060000000A128A11FC2F18
:100E54008312031385018601870188018316031712
:100E640088018901073083160313850086018701F1
:100E740088010800831203138811081208140B3028
:100E8400F2002630F1005D30F000F00B472FF10B3B
:100E9400472FF20B472F4E2F831203130810881489
:100EA4000630F2001330F100AD30F000F00B582F93
:100EB400F10B582FF20B582F5F2F83120313881056
:100EC40008150630F2001330F100AD30F000F00BDD
:100ED400692FF10B692FF20B692F702F8312031303
:100EE400081108000A128A112A270A128A11831289
:100EF4000313051C7E2F7F2F792F0A128A113C279A
:100F04000A128A11F22F851C882F892FB72F060801
:100F1400031D8D2F8E2F9E2F013086000430F50087
:100F24000C30F4003330F300F30B962FF40B962FB0
:100F3400F50B962F9D2FB72F861FA12FA22FA62F1B
:100F4400860187018815792F0608F3007307860048
:100F54000430F5000C30F4003330F300F30BB02F01
:100F6400F40BB02FF50BB02FB72F83120313051D0D
:100F7400BC2FBD2FEB2F0708031DC12FC22FD22F6B
:100F8400013087000430F5000C30F4003330F300F6
:100F9400F30BCA2FF40BCA2FF50BCA2FD12FEB2F4B
:100FA400871FD52FD62FDA2F870188010816EB2F3C
:100FB4000708F300730787000430F5000C30F400D1
:100FC4003330F300F30BE42FF40BE42FF50BE42F91
:100FD400EB2F83120313081EF02FF12F852F792F87
:100FE40083120313881DF72FF82FEB2F792F0A1282
:0C0FF4008A11002883010A128A11742F50
:04400E00D120FF3F7F
:00000001FF
