:020000040000FA
:060000000A128A110C280F
:10000800FE00030EF1000A08F2000A128A111628EF
:100018000A128A110F28F501F601F70183010A1265
:100028008A115F280B1C19281A282C2883120313FD
:10003800061C1F28202825280130F0007008850795
:100048000B10861C282829282C28013085020B1023
:10005800831203130C1F3128322837281E08F0009A
:100068007008F7000C1372088A00710E8300FE0EE8
:100078007E0E090083120313850187018801831608
:10008800031788010130890083160313850107309F
:100098008600870188012130831203139F0083168D
:1000A80003139F01C8308B0042308C00FF30920050
:1000B8000330960008000A128A113E200A128A119B
:1000C8003430F400F130F300F30B6828F40B68289F
:1000D8006D28831203139F187228732864289F14AD
:0800E80064280A128A110C2899
:04400E00D120FF3F7F
:00000001FF
