:020000040000FA
:060000000A128A110C280F
:10000800FE00030EF1000A08F2000A128A11B7284E
:100018000A128A110F28F701F801F901FA01830180
:100028000A128A1170284A283F3083120313870066
:100038006F2806308312031387006F285B30831202
:10004800031387006F284F308312031387006F282C
:1000580066308312031387006F286D3083120313F1
:1000680087006F287D308312031387006F280730BD
:100078008312031387006F287F30831203138700CE
:100088006F286F308312031387006F287408003AB3
:1000980003194F286F287308003A03191828013AE2
:1000A80003191D28033A03192228013A031927289E
:1000B800073A03192C28013A03193128033A03197E
:1000C8003628013A03193B280F3A03194028013A08
:1000D800031945286F2808000A128A11EE200A120F
:1000E8008A113430F600F130F500F50B7928F60B5B
:1000F80079287E28831203139F188328842885284B
:100108009F14881C882889289B287A080F39F500AD
:100118007508F8007808F500F6017508F300760808
:10012800F4000A128A1117200A128A1175287A080F
:10013800F50004300310F50CFF3E031D9E287508DA
:10014800F6007608F9007908F500F6017508F3005D
:100158007608F4000A128A1117200A128A117528E3
:100168000A128A110C280B1CBA28BB28CD28831226
:100178000313061CC028C128C6280130F0007008E7
:1001880085070B10861CC928CA28CD28013085028E
:100198000B10831203130C1FD228D328D8281E084B
:1001A800F0007008FA000C138C1CDB28DC28E72808
:1001B800881CDF28E028E428881008148C10E72819
:1001C800881408108C1072088A00710E8300FE0EC5
:1001D8007E0E0900831203138501870188018316A7
:1001E800031788010130890083160313850107303E
:1001F8008600870188012130831203139F0083162C
:1002080003139F01C8308B0042308C00FF309200EE
:060218000330960008000F
:04400E00D120FF3F7F
:00000001FF
