:020000040000FA
:060000000A128A110C280F
:10000800FE00030EF1000A08F2000A128A113428D1
:100018000A128A110F2883010A128A1151288312A1
:1000280003138501870188018316031788010130AE
:10003800890083160313850107308600870188012C
:100048002130831203139F00831603139F01C830C6
:100058008B0042308C00FF3092000330960008007D
:100068000B1C372838284A2883120313061C3D28FE
:100078003E2843280130F000700885070B10861CC5
:10008800462847284A28013085020B1072088A0042
:10009800710E8300FE0E7E0E09000A128A111320CB
:0C00A8000A128A1156280A128A110C282C
:04400E00D120FF3F7F
:00000001FF
