:020000040000FA
:100000000A128A11F32FFF1B0D2883137F18831701
:100010000008840A0319FF0A080000308A00040857
:10002000840A82070034013400340A340034643412
:100030000034E83403341034273441344434433436
:100040002034203443344F344E345434203420345C
:100050002034543445344D34503400342534313454
:1000600069342E34253431346934763420342534DF
:0E00700033346934203425343234693400349A
:1006B600F00070088312031388000800F000700829
:1006C600831203139300080001300A128A11C4230F
:1006D6000A128A11080083160313141C732B742B39
:1006E6006E2B080064008001840A04060319003496
:1006F6000406762B0A128A116E230A128A118312B5
:10070600031313080800F100F0013A3071020318D0
:100716008D2B8E2B962B30307102031C932B942B32
:10072600962BF001F00A700C0800F20083120313F6
:10073600071472080A128A115B230A128A1183129D
:10074600031387141A30F100F10BA72B0000831254
:10075600031387100800F300831603138712731D13
:10076600B52BB62BBA2B720894008715BE2B7008D2
:1007760072049400871173087104831203139400A2
:100786000800F30083120313071073080A128A1174
:100796005B230A128A118312031387140B30F200AB
:1007A6006230F100F10BD52BF20BD52B0000831232
:1007B600031387100800F6007603031DE32BE42BD2
:1007C600F02B74087F3EF5007508F70077080A12CB
:1007D6008A11C4230A128A11012C02307606031DDF
:1007E600F52BF62B012C7408BF3EF5007508F700B3
:1007F60077080A128A11C4230A128A110800F40122
:10080600F501701C072C082C0E2C7208F40703182F
:10081600F50A7308F50701300310F20DF30DFF3EDC
:10082600031D0F2C01300310F10CF00CFF3E031DCD
:10083600162C70087104031D212C222C042C75081B
:10084600F1007408F0000800831603178801890177
:10085600103083160313870086018501880107304F
:1008660083120313860085018701AA308800C030F1
:100876008B00831603139A01193099008316031708
:1008860087012430831603139800903083120313D4
:100896009800F001F101F20120300A128A11AE230C
:1008A6000A128A1108007808790403195B2C5C2C5B
:1008B6008B2CFD01FD0A6A2C01300310F80DF90D91
:1008C600FF3E031D602C0130FC007C08FD07F91F6C
:1008D6006D2C6E2C5F2C79087B02031D742C780816
:1008E6007A02031C772C782C7E2C7808FA02790879
:1008F600031CFB03FB0201300310F90CF80CFF3E4E
:10090600031D7F2C0130FD02031D8A2C8B2C6E2CBF
:100916007B08F9007A08F8000800F801F901B52CFF
:1009260078087307F6007408F5000318F50AF81F2F
:100936009D2CF5037508F700770883120313FF0053
:10094600760884000A128A1103200A128A110A12F2
:100956008A1198230A128A110130F8070318F90A36
:100966000030F90778087307F6007408F5000318D5
:10097600F50AF81FBF2CF5037508F70077088312F0
:100986000313FF00760884000A128A1103200A1254
:100996008A11003A031DD02CD12C932C0800F501A6
:1009A600F601700871040319D92CDA2C112DF70100
:1009B600F70AE82C01300310F00DF10DFF3E031D80
:1009C600DE2C0130F4007408F707F11FEB2CEC2C39
:1009D600DD2C01300310F50DF60DFF3E031DED2C49
:1009E60071087302031DF92C70087202031CFC2C9B
:1009F600FD2C042D7008F2027108031CF303F302A8
:100A0600751401300310F10CF00CFF3E031D052D8B
:100A16000130F702031D102D112DEC2C7608F10084
:100A26007508F000080000300A128A115B230A12CA
:100A36008A113430F500F130F400F40B202DF50B5B
:100A4600202D252D03300A128A11C4230A128A1179
:100A56000D30F500FB30F400F40B2F2DF50B2F2D88
:100A6600342D03300A128A11C4230A128A111D304A
:100A7600F5009130F400F40B3E2DF50B3E2D0330BE
:100A86000A128A11C4230A128A1138300A128A11EC
:100A9600C4230A128A110C300A128A11C4230A12BC
:100AA6008A1101300A128A11C4230A128A110630E9
:100AB6000A128A11C4230A128A1108000A128A111C
:100AC60027240A128A110A128A1116250A128A1175
:100AD6000A128A1167230A128A1183120313061057
:100AE600033083120313B6009730B500B50B792D8A
:100AF600B60B792D01300A128A1161230A128A1166
:100B06000A128A117D230A128A1183120313B50071
:100B16003508C400C101C001033083120313B600B7
:100B26009730B500B50B952DB60B952D8312031393
:100B360006148610033083120313B6009730B500EF
:100B4600B50BA32DB60BA32D8312031343080A126C
:100B56008A1161230A128A110A128A117D230A1246
:100B66008A1183120313B5003508C30003308312BC
:100B76000313B6009730B500B50BBF2DB60BBF2DCE
:100B86008312031386140611033083120313B6006F
:100B96009730B500B50BCD2DB60BCD2D01300A1211
:100BA6008A1161230A128A110A128A117D230A12F6
:100BB6008A1183120313B5003508C200033083126D
:100BC6000313B6009730B500B50BE72DB60BE72D2E
:100BD600831203130615F401F40A01300A128A116E
:100BE600DE230A128A110B30F3008030F4000A1259
:100BF6008A1190240A128A11F401F40A02300A12A8
:100C06008A11DE230A128A11112E4408CE3EB5003F
:100C16003508C4000130B5003508C10732308312EB
:100C2600031344020318182E192E082E232E4408E7
:100C3600FB3EB5003508C4000130B5003508C007D5
:100C4600053044020318282E292E1A2E453042025A
:100C5600031C2E2E2F2E352E4208B53EB500350824
:100C6600C2003A2E42084B3CB5003508C2001C3083
:100C7600B5003508A0004108B600B7013608A10046
:100C86003708A2004008B800B9013808A30039089F
:100C9600A4004308BA00BB013A08A5003B08A60019
:100CA6004208BC00BD013C08A7003D08A80045302D
:100CB6000A128A116D260A128A114530F300003095
:100CC600F4000A128A1190240A128A11702D0A124F
:100CD6008A11002883120313B1002130A9002908C4
:100CE600AC00DC2F2530340603197A2E7B2E872E96
:100CF6003408A900310884002908831380000130D4
:100D0600A9002908B107DC2FB201B301AE01200802
:100D160084000A128A110D200A128A110A128A11F7
:100D260086230A128A11031C992E9A2EDA2E831212
:100D36000313B201B3010A30F0000030F100831250
:100D460003133308F3003208F2000A128A11022450
:100D56000A128A11710883120313B3007008B200D5
:100D6600200884000A128A110D200A128A11D03E28
:100D7600A900FF3003180030AA002908B20703189B
:100D8600B30A2A08B3070130A9002908A0072008DA
:100D960084000A128A110D200A128A110A128A1177
:100DA60086230A128A110318D92EDA2E9E2E0130B6
:100DB60083120313A007FF30200784000A128A114A
:100DC6000D200A128A11B400A900AA012A08003AC5
:100DD6000319EE2EDC2F2908003A0319EE2F643A88
:100DE6000319F92E0D3A0319F92EDC2F2C0884006D
:100DF60083130008AF00840A0008B0000230A9007F
:100E06002908AC07B01F082F092F122F0330A9009D
:100E16002908AE04AF09B009AF0A0319B00AB40134
:100E2600B40A3408A9002907013E84000A128A116F
:100E36000D200A128A11AA000A128A110D200A121E
:100E46008A11AB002B083002031D2B2F2A082F0214
:100E560003182E2F2F2F302F3A2F0130A9002908E3
:100E6600B40705303406031D392F3A2F142F3208E4
:100E7600330403193F2F402F4C2F2E080339031933
:100E8600452F462F4C2FFF30B2070318B30AFF3009
:100E9600B3073308803A803C031D532F32083402CF
:100EA6000318562F572F632F831203133408A900F4
:100EB600AA012908B2022A08031CB303B302672F4A
:100EC60083120313B201B3013208330403196C2FE2
:100ED6006D2F842F2030A900310884002908831340
:100EE60080000130A9002908B107FF30B2070318B6
:100EF600B30AFF30B30732083304031D832F842F50
:100F06006D2F2E0803390319892F8A2F952F2D301F
:100F1600A900310884002908831380000130A90044
:100F26002908B1073408A9002908AD00D32F0A30D3
:100F3600F8000030F9002D08A9002907013E8400B9
:100F46000A128A110D200A128A11F0000A128A1159
:100F56000D200A128A11F1003008F3002F08F20062
:100F66000A128A11D2240A128A117108FB0070082B
:100F7600FA000A128A1156240A128A117808303E9B
:100F860083120313AA002A08B4003408A900310802
:100F960084002908831380000130A9002908B107BD
:100FA600FF30A9002908AD072D0A031DDB2FDC2F12
:100FB6009A2F0130A007FF30200784000A128A11F9
:100FC6000D200A128A11A9002908B4003408031D4D
:100FD600ED2FEE2F752E3108840083138001080053
:100FE60083133E30840055300A128A1175230A1283
:0A0FF6008A1183010A128A11612D8D
:04400E00D120FF3F7F
:00000001FF
