:020000040000FA
:060000000A128A11FB2F19
:100EFE00F000700883120313930008008316031387
:100F0E00141C8A2F8B2F852F08000A128A11852711
:100F1E000A128A118312031313080800F3008316B2
:100F2E0003138712731D9C2F9D2FA12F72089400FF
:100F3E008715A52F70087204940087117308710429
:100F4E008312031394000800831603178801890186
:100F5E001030831603138700860185018801073040
:100F6E0083120313860085018701AA308800F001E1
:100F7E00F101F20120300A128A1195270A128A1104
:100F8E0008000A128A11AB270A128A118312031360
:100F9E0006100330F5009730F400F40BD42FF50B48
:100FAE00D42FD92F01300A128A117F270A128A11E3
:100FBE000A128A118C270A128A11F4007408F6009C
:100FCE0076088312031388000330F5009730F4007F
:100FDE00F40BEF2FF50BEF2FF42F831203130614E0
:100FEE00CD2F0A128A110028F60183010A128A11E6
:020FFE00C82FFA
:04400E00D120FF3F7F
:00000001FF
