:020000040000FA
:100000000A128A11F32FFF1B0D2883137F18831701
:100010000008840A0319FF0A080000308A00040857
:10002000840A82070034013400340A340034643412
:100030000034E83403341034273441344434433436
:100040002034203443344F344E345434203420345C
:100050002034543445344D34503400342534313454
:1000600069342E34253431346934763420342534DF
:0E00700033346934203425343234693400349A
:1003B800F00070088312031388000800F00070082A
:1003C800831203139300080001300A128A11452290
:1003D8000A128A11080083160313141CF429F5293C
:1003E800EF29080064008001840A04060319003418
:1003F8000406F7290A128A11EF210A128A118312B8
:10040800031313080800F100F0013A3071020318D1
:100418000E2A0F2A172A30307102031C142A152AB3
:10042800172AF001F00A700C0800F2008312031377
:10043800071472080A128A11DC210A128A1183121F
:10044800031387141A30F100F10B282A00008312D5
:10045800031387100800F300831603138712731D14
:10046800362A372A3B2A7208940087153F2A7008D3
:1004780072049400871173087104831203139400A3
:100488000800F30083120313071073080A128A1175
:10049800DC210A128A118312031387140B30F2002D
:1004A8006230F100F10B562AF20B562A0000831233
:1004B800031387100800F6007603031D642A652AD3
:1004C800712A74087F3EF5007508F70077080A124C
:1004D8008A1145220A128A11822A02307606031DE1
:1004E800762A772A822A7408BF3EF5007508F70035
:1004F80077080A128A1145220A128A110800F401A3
:10050800F501701C882A892A8F2A7208F4070318B3
:10051800F50A7308F50701300310F20DF30DFF3EDD
:10052800031D902A01300310F10CF00CFF3E031D4F
:10053800972A70087104031DA22AA32A852A750820
:10054800F1007408F0000800831603178801890178
:100558001030831603138700860185018801073050
:1005680083120313860085018701AA308800C030F2
:100578008B00831603139A01193099008316031709
:1005880087012430831603139800903083120313D5
:100598009800F001F101F20120300A128A112F228D
:1005A8000A128A110800780879040319DC2ADD2A5E
:1005B8000C2BFD01FD0AEB2A01300310F80DF90D93
:1005C800FF3E031DE12A0130FC007C08FD07F91FEE
:1005D800EE2AEF2AE02A79087B02031DF52A78081B
:1005E8007A02031CF82AF92AFF2A7808FA027908FD
:1005F800031CFB03FB0201300310F90CF80CFF3E4F
:10060800031D002B0130FD02031D0B2B0C2BEF2AC1
:100618007B08F9007A08F8000800F801F901362B80
:1006280078087307F6007408F5000318F50AF81F30
:100638001E2BF5037508F700770883120313FF00D4
:10064800760884000A128A1103200A128A110A12F3
:100658008A1119220A128A110130F8070318F90AB7
:100668000030F90778087307F6007408F5000318D6
:10067800F50AF81F402BF5037508F7007708831271
:100688000313FF00760884000A128A1103200A1255
:100698008A11003A031D512B522B142B0800F50127
:1006A800F6017008710403195A2B5B2B922BF70182
:1006B800F70A692B01300310F00DF10DFF3E031D01
:1006C8005F2B0130F4007408F707F11F6C2B6D2BBA
:1006D8005E2B01300310F50DF60DFF3E031D6E2B4A
:1006E80071087302031D7A2B70087202031C7D2B9C
:1006F8007E2B852B7008F2027108031CF303F302AA
:10070800751401300310F10CF00CFF3E031D862B0D
:100718000130F702031D912B922B6D2B7608F10007
:100728007508F000080000300A128A11DC210A124C
:100738008A113430F500F130F400F40BA12BF50BDD
:10074800A12BA62B03300A128A1145220A128A11FC
:100758000D30F500FB30F400F40BB02BF50BB02B8B
:10076800B52B03300A128A1145220A128A111D304C
:10077800F5009130F400F40BBF2BF50BBF2B0330C1
:100788000A128A1145220A128A1138300A128A116D
:1007980045220A128A110C300A128A1145220A12BD
:1007A8008A1101300A128A1145220A128A1106306A
:1007B8000A128A1145220A128A110800F200312C05
:1007C8003030F000700883120313BE00592C31300A
:1007D800F000700883120313BE00592C3230F00069
:1007E800700883120313BE00592C3330F0007008D0
:1007F80083120313BE00592C3430F00070088312A2
:100808000313BE00592C3530F0007008831203130F
:10081800BE00592C3630F000700883120313BE0056
:10082800592C3730F000700883120313BE00592C7E
:100838003830F000700883120313BE00592C393089
:10084800F000700883120313BE00592C4030F000EA
:10085800700883120313BE00592C7208F000F101CE
:100868007108003A0319392C2A2C7008003A031928
:10087800E42B013A0319EB2B033A0319F22B013A43
:100888000319F92B073A0319002C013A0319072C0D
:10089800033A03190E2C013A0319152C0F3A0319C0
:1008A8001C2C013A0319232C2A2C08008312031349
:1008B800B1002130A9002908AC00C92D2530340623
:1008C8000319672C682C742C3408A900310884009B
:1008D8002908831380000130A9002908B107C92D10
:1008E800B201B301AE01200884000A128A110D205A
:1008F8000A128A110A128A1107220A128A11031C83
:10090800862C872CC72C83120313B201B3010A303B
:10091800F0000030F100831203133308F3003208AB
:10092800F2000A128A1183220A128A1171088312AC
:100938000313B3007008B200200884000A128A1159
:100948000D200A128A11D03EA900FF30031800308A
:10095800AA002908B2070318B30A2A08B307013006
:10096800A9002908A007200884000A128A110D206E
:100978000A128A110A128A1107220A128A11031806
:10098800C62CC72C8B2C013083120313A007FF3011
:10099800200784000A128A110D200A128A11B40055
:1009A800A900AA012A08003A0319DB2CC92D290835
:1009B800003A0319DB2D643A0319E62C0D3A0319A2
:1009C800E62CC92D2C08840083130008AF00840A84
:1009D8000008B0000230A9002908AC07B01FF52CA8
:1009E800F62CFF2C0330A9002908AE04AF09B00982
:1009F800AF0A0319B00AB401B40A3408A9002907D8
:100A0800013E84000A128A110D200A128A11AA00D6
:100A18000A128A110D200A128A11AB002B08300223
:100A2800031D182D2A082F0203181B2D1C2D1D2D00
:100A3800272D0130A9002908B40705303406031D05
:100A4800262D272D012D3208330403192C2D2D2D89
:100A5800392D2E0803390319322D332D392DFF3046
:100A6800B2070318B30AFF30B3073308803A803C53
:100A7800031D402D320834020318432D442D502DF8
:100A8800831203133408A900AA012908B2022A080C
:100A9800031CB303B302542D83120313B201B30131
:100AA800320833040319592D5A2D712D2030A9000D
:100AB800310884002908831380000130A90029081F
:100AC800B107FF30B2070318B30AFF30B307320883
:100AD8003304031D702D712D5A2D2E080339031967
:100AE800762D772D822D2D30A90031088400290814
:100AF800831380000130A9002908B1073408A90030
:100B08002908AD00C02D0A30F8000030F9002D0882
:100B1800A9002907013E84000A128A110D200A1231
:100B28008A11F0000A128A110D200A128A11F100A6
:100B38003008F3002F08F2000A128A1153230A1210
:100B48008A117108FB007008FA000A128A11D7226C
:100B58000A128A117808303E83120313AA002A0861
:100B6800B4003408A90031088400290883138000E0
:100B78000130A9002908B107FF30A9002908AD07ED
:100B88002D0A031DC82DC92D872D0130A007FF3060
:100B9800200784000A128A110D200A128A11A9005E
:100BA8002908B4003408031DDA2DDB2D622C310826
:100BB80084008313800108000A128A11A8220A12ED
:100BC8008A110A128A1197230A128A110A128A11A3
:100BD800E8210A128A1183120313061003308312C4
:100BE8000313B6009730B500B50BF82DB60BF82DEA
:100BF80001300A128A11E2210A128A110A128A1194
:100C0800FE210A128A1183120313B5003508C800A1
:100C1800C501C401033083120313B6009730B50031
:100C2800B50B142EB60B142E83120313061486105C
:100C3800033083120313B6009730B500B50B222E8C
:100C4800B60B222E8312031347080A128A11E221D7
:100C58000A128A110A128A11FE210A128A118312B3
:100C68000313B5003508C700033083120313B60019
:100C78009730B500B50B3E2EB60B3E2E83120313EC
:100C880086140611033083120313B6009730B5009B
:100C9800B50B4C2EB60B4C2E01300A128A11E221EC
:100CA8000A128A110A128A11FE210A128A11831263
:100CB8000313B5003508C600033083120313B600CA
:100CC8009730B500B50B662EB60B662E831203134C
:100CD8000615F401F40A01300A128A115F220A1279
:100CE8008A110B30F3008030F4000A128A111123A4
:100CF8000A128A11F401F40A02300A128A115F22D8
:100D08000A128A11902E4808CE3EB5003508C80050
:100D18000130B5003508C507323083120313480285
:100D28000318972E982E872EA22E4808FB3EB50052
:100D38003508C8000130B5003508C4070530480239
:100D48000318A72EA82E992E45304602031CAD2E57
:100D5800AE2EB42E4608B53EB5003508C600B92EED
:100D680046084B3CB5003508C6004608B5003508AE
:100D7800BF00C72E3F089C3EB5003508BF000130B4
:100D8800B5003508C20764303F020318CC2ECD2EBB
:100D9800BE2ED72E3F08F63EB5003508BF000130FD
:100DA800B5003508C1070A303F020318DC2EDD2ED6
:100DB800CE2E1C30B5003508A0004508B600B70196
:100DC8003608A1003708A2004408B800B90138085D
:100DD800A3003908A4004708BA00BB013A08A500D7
:100DE8003B08A6004608BC00BD013C08A7003D081A
:100DF800A80049300A128A115A240A128A11493065
:100E0800F3000030F4000A128A1111230A128A1121
:100E180083160313981C112F122FEF2D831203131F
:100E280045080A128A11E2230A128A11831203134F
:100E3800B5003508C000400899000B308312031331
:100E4800B6006130B500B50B272FB60B272F2C2F16
:100E58002E308312031399000B3083120313B6004C
:100E68006130B500B50B362FB60B362F3B2F8312EA
:100E7800031344080A128A11E2230A128A11831200
:100E88000313B5003508C000400899000B308312E1
:100E98000313B6006130B500B50B502FB60B502FB9
:100EA800552F20308312031399000B30831203133C
:100EB800B6006130B500B50B5F2FB60B5F2F642FFE
:100EC8008312031347080A128A11E2230A128A11AD
:100ED80083120313B5003508C000400899000B3091
:100EE80083120313B6006130B500B50B792FB60B2A
:100EF800792F7E2F20308312031399000B30831231
:100F08000313B6006130B500B50B882FB60B882FD8
:100F18008D2F8312031342080A128A11E2230A1240
:100F28008A1183120313B5003508C00040089900E0
:100F38000B3083120313B6006130B500B50BA22F36
:100F4800B60BA22FA72F8312031341080A128A1186
:100F5800E2230A128A1183120313B5003508C00070
:100F6800400899000B3083120313B6006130B500B6
:100F7800B50BBC2FB60BBC2FC12F831203133F0830
:100F88000A128A11E2230A128A1183120313B50086
:100F98003508C000400899000B3083120313B600CF
:100FA8006130B500B50BD62FB60BD62FDB2F0D3021
:100FB8008312031399000B3083120313B6006130B8
:100FC800B500B50BE52FB60BE52FEA2F83120313F7
:100FD800C201C101BF01EF2D0A128A110028831333
:100FE8003E30840059300A128A11F6210A128A11F9
:080FF80083010A128A11E02DA9
:04400E00D120FF3F7F
:00000001FF
